{
  "_format": "hh-sol-artifact-1",
  "contractName": "CryptoCrafters",
  "sourceName": "contracts/test.sol",
  "abi": [
    {
      "inputs": [],
      "stateMutability": "nonpayable",
      "type": "constructor"
    },
    {
      "anonymous": false,
      "inputs": [
        {
          "indexed": true,
          "internalType": "address",
          "name": "owner",
          "type": "address"
        },
        {
          "indexed": true,
          "internalType": "address",
          "name": "approved",
          "type": "address"
        },
        {
          "indexed": true,
          "internalType": "uint256",
          "name": "tokenId",
          "type": "uint256"
        }
      ],
      "name": "Approval",
      "type": "event"
    },
    {
      "anonymous": false,
      "inputs": [
        {
          "indexed": true,
          "internalType": "address",
          "name": "owner",
          "type": "address"
        },
        {
          "indexed": true,
          "internalType": "address",
          "name": "operator",
          "type": "address"
        },
        {
          "indexed": false,
          "internalType": "bool",
          "name": "approved",
          "type": "bool"
        }
      ],
      "name": "ApprovalForAll",
      "type": "event"
    },
    {
      "anonymous": false,
      "inputs": [
        {
          "indexed": false,
          "internalType": "uint256",
          "name": "_fromTokenId",
          "type": "uint256"
        },
        {
          "indexed": false,
          "internalType": "uint256",
          "name": "_toTokenId",
          "type": "uint256"
        }
      ],
      "name": "BatchMetadataUpdate",
      "type": "event"
    },
    {
      "anonymous": false,
      "inputs": [
        {
          "indexed": false,
          "internalType": "uint256",
          "name": "_tokenId",
          "type": "uint256"
        }
      ],
      "name": "MetadataUpdate",
      "type": "event"
    },
    {
      "anonymous": false,
      "inputs": [
        {
          "indexed": true,
          "internalType": "address",
          "name": "previousOwner",
          "type": "address"
        },
        {
          "indexed": true,
          "internalType": "address",
          "name": "newOwner",
          "type": "address"
        }
      ],
      "name": "OwnershipTransferred",
      "type": "event"
    },
    {
      "anonymous": false,
      "inputs": [
        {
          "indexed": true,
          "internalType": "address",
          "name": "from",
          "type": "address"
        },
        {
          "indexed": true,
          "internalType": "address",
          "name": "to",
          "type": "address"
        },
        {
          "indexed": true,
          "internalType": "uint256",
          "name": "tokenId",
          "type": "uint256"
        }
      ],
      "name": "Transfer",
      "type": "event"
    },
    {
      "inputs": [],
      "name": "_tokenIdCounter",
      "outputs": [
        {
          "internalType": "uint256",
          "name": "_value",
          "type": "uint256"
        }
      ],
      "stateMutability": "view",
      "type": "function"
    },
    {
      "inputs": [
        {
          "internalType": "address",
          "name": "to",
          "type": "address"
        },
        {
          "internalType": "uint256",
          "name": "tokenId",
          "type": "uint256"
        }
      ],
      "name": "approve",
      "outputs": [],
      "stateMutability": "nonpayable",
      "type": "function"
    },
    {
      "inputs": [
        {
          "internalType": "address",
          "name": "owner",
          "type": "address"
        }
      ],
      "name": "balanceOf",
      "outputs": [
        {
          "internalType": "uint256",
          "name": "",
          "type": "uint256"
        }
      ],
      "stateMutability": "view",
      "type": "function"
    },
    {
      "inputs": [
        {
          "internalType": "uint256",
          "name": "tokenId",
          "type": "uint256"
        }
      ],
      "name": "getApproved",
      "outputs": [
        {
          "internalType": "address",
          "name": "",
          "type": "address"
        }
      ],
      "stateMutability": "view",
      "type": "function"
    },
    {
      "inputs": [],
      "name": "getTokenId",
      "outputs": [
        {
          "internalType": "uint256",
          "name": "",
          "type": "uint256"
        }
      ],
      "stateMutability": "view",
      "type": "function"
    },
    {
      "inputs": [
        {
          "internalType": "address",
          "name": "owner",
          "type": "address"
        },
        {
          "internalType": "address",
          "name": "operator",
          "type": "address"
        }
      ],
      "name": "isApprovedForAll",
      "outputs": [
        {
          "internalType": "bool",
          "name": "",
          "type": "bool"
        }
      ],
      "stateMutability": "view",
      "type": "function"
    },
    {
      "inputs": [],
      "name": "name",
      "outputs": [
        {
          "internalType": "string",
          "name": "",
          "type": "string"
        }
      ],
      "stateMutability": "view",
      "type": "function"
    },
    {
      "inputs": [],
      "name": "owner",
      "outputs": [
        {
          "internalType": "address",
          "name": "",
          "type": "address"
        }
      ],
      "stateMutability": "view",
      "type": "function"
    },
    {
      "inputs": [
        {
          "internalType": "uint256",
          "name": "tokenId",
          "type": "uint256"
        }
      ],
      "name": "ownerOf",
      "outputs": [
        {
          "internalType": "address",
          "name": "",
          "type": "address"
        }
      ],
      "stateMutability": "view",
      "type": "function"
    },
    {
      "inputs": [],
      "name": "renounceOwnership",
      "outputs": [],
      "stateMutability": "nonpayable",
      "type": "function"
    },
    {
      "inputs": [
        {
          "internalType": "address",
          "name": "to",
          "type": "address"
        },
        {
          "internalType": "string",
          "name": "uri",
          "type": "string"
        }
      ],
      "name": "safeMint",
      "outputs": [],
      "stateMutability": "nonpayable",
      "type": "function"
    },
    {
      "inputs": [
        {
          "internalType": "address",
          "name": "from",
          "type": "address"
        },
        {
          "internalType": "address",
          "name": "to",
          "type": "address"
        },
        {
          "internalType": "uint256",
          "name": "tokenId",
          "type": "uint256"
        }
      ],
      "name": "safeTransferFrom",
      "outputs": [],
      "stateMutability": "nonpayable",
      "type": "function"
    },
    {
      "inputs": [
        {
          "internalType": "address",
          "name": "from",
          "type": "address"
        },
        {
          "internalType": "address",
          "name": "to",
          "type": "address"
        },
        {
          "internalType": "uint256",
          "name": "tokenId",
          "type": "uint256"
        },
        {
          "internalType": "bytes",
          "name": "data",
          "type": "bytes"
        }
      ],
      "name": "safeTransferFrom",
      "outputs": [],
      "stateMutability": "nonpayable",
      "type": "function"
    },
    {
      "inputs": [
        {
          "internalType": "address",
          "name": "operator",
          "type": "address"
        },
        {
          "internalType": "bool",
          "name": "approved",
          "type": "bool"
        }
      ],
      "name": "setApprovalForAll",
      "outputs": [],
      "stateMutability": "nonpayable",
      "type": "function"
    },
    {
      "inputs": [
        {
          "internalType": "bytes4",
          "name": "interfaceId",
          "type": "bytes4"
        }
      ],
      "name": "supportsInterface",
      "outputs": [
        {
          "internalType": "bool",
          "name": "",
          "type": "bool"
        }
      ],
      "stateMutability": "view",
      "type": "function"
    },
    {
      "inputs": [],
      "name": "symbol",
      "outputs": [
        {
          "internalType": "string",
          "name": "",
          "type": "string"
        }
      ],
      "stateMutability": "view",
      "type": "function"
    },
    {
      "inputs": [
        {
          "internalType": "uint256",
          "name": "tokenId",
          "type": "uint256"
        }
      ],
      "name": "tokenURI",
      "outputs": [
        {
          "internalType": "string",
          "name": "",
          "type": "string"
        }
      ],
      "stateMutability": "view",
      "type": "function"
    },
    {
      "inputs": [
        {
          "internalType": "address",
          "name": "from",
          "type": "address"
        },
        {
          "internalType": "address",
          "name": "to",
          "type": "address"
        },
        {
          "internalType": "uint256",
          "name": "tokenId",
          "type": "uint256"
        }
      ],
      "name": "transferFrom",
      "outputs": [],
      "stateMutability": "nonpayable",
      "type": "function"
    },
    {
      "inputs": [
        {
          "internalType": "address",
          "name": "newOwner",
          "type": "address"
        }
      ],
      "name": "transferOwnership",
      "outputs": [],
      "stateMutability": "nonpayable",
      "type": "function"
    }
  ],
  "bytecode": "0x60806040523480156200001157600080fd5b506040518060400160405280600e81526020017f43727970746f43726166746572730000000000000000000000000000000000008152506040518060400160405280600281526020017f434300000000000000000000000000000000000000000000000000000000000081525081600090816200008f919062000412565b508060019081620000a1919062000412565b505050620000c4620000b8620000ca60201b60201c565b620000d260201b60201c565b620004f9565b600033905090565b6000600760009054906101000a900473ffffffffffffffffffffffffffffffffffffffff16905081600760006101000a81548173ffffffffffffffffffffffffffffffffffffffff021916908373ffffffffffffffffffffffffffffffffffffffff1602179055508173ffffffffffffffffffffffffffffffffffffffff168173ffffffffffffffffffffffffffffffffffffffff167f8be0079c531659141344cd1fd0a4f28419497f9722a3daafe3b4186f6b6457e060405160405180910390a35050565b600081519050919050565b7f4e487b7100000000000000000000000000000000000000000000000000000000600052604160045260246000fd5b7f4e487b7100000000000000000000000000000000000000000000000000000000600052602260045260246000fd5b600060028204905060018216806200021a57607f821691505b60208210810362000230576200022f620001d2565b5b50919050565b60008190508160005260206000209050919050565b60006020601f8301049050919050565b600082821b905092915050565b6000600883026200029a7fffffffffffffffffffffffffffffffffffffffffffffffffffffffffffffffff826200025b565b620002a686836200025b565b95508019841693508086168417925050509392505050565b6000819050919050565b6000819050919050565b6000620002f3620002ed620002e784620002be565b620002c8565b620002be565b9050919050565b6000819050919050565b6200030f83620002d2565b620003276200031e82620002fa565b84845462000268565b825550505050565b600090565b6200033e6200032f565b6200034b81848462000304565b505050565b5b8181101562000373576200036760008262000334565b60018101905062000351565b5050565b601f821115620003c2576200038c8162000236565b62000397846200024b565b81016020851015620003a7578190505b620003bf620003b6856200024b565b83018262000350565b50505b505050565b600082821c905092915050565b6000620003e760001984600802620003c7565b1980831691505092915050565b6000620004028383620003d4565b9150826002028217905092915050565b6200041d8262000198565b67ffffffffffffffff811115620004395762000438620001a3565b5b62000445825462000201565b6200045282828562000377565b600060209050601f8311600181146200048a576000841562000475578287015190505b620004818582620003f4565b865550620004f1565b601f1984166200049a8662000236565b60005b82811015620004c4578489015182556001820191506020850194506020810190506200049d565b86831015620004e45784890151620004e0601f891682620003d4565b8355505b6001600288020188555050505b505050505050565b612f3980620005096000396000f3fe608060405234801561001057600080fd5b50600436106101215760003560e01c8063715018a6116100ad578063b88d4fde11610071578063b88d4fde146102f6578063c87b56dd14610312578063d204c45e14610342578063e985e9c51461035e578063f2fde38b1461038e57610121565b8063715018a61461027657806384c4bd4b146102805780638da5cb5b1461029e57806395d89b41146102bc578063a22cb465146102da57610121565b8063095ea7b3116100f4578063095ea7b3146101c257806323b872dd146101de57806342842e0e146101fa5780636352211e1461021657806370a082311461024657610121565b8063010a38f51461012657806301ffc9a71461014457806306fdde0314610174578063081812fc14610192575b600080fd5b61012e6103aa565b60405161013b9190611cd7565b60405180910390f35b61015e60048036038101906101599190611d5e565b6103bb565b60405161016b9190611da6565b60405180910390f35b61017c6103cd565b6040516101899190611e51565b60405180910390f35b6101ac60048036038101906101a79190611e9f565b61045f565b6040516101b99190611f0d565b60405180910390f35b6101dc60048036038101906101d79190611f54565b6104a5565b005b6101f860048036038101906101f39190611f94565b6105bc565b005b610214600480360381019061020f9190611f94565b61061c565b005b610230600480360381019061022b9190611e9f565b61063c565b60405161023d9190611f0d565b60405180910390f35b610260600480360381019061025b9190611fe7565b6106c2565b60405161026d9190611cd7565b60405180910390f35b61027e610779565b005b61028861078d565b6040516102959190611cd7565b60405180910390f35b6102a6610799565b6040516102b39190611f0d565b60405180910390f35b6102c46107c3565b6040516102d19190611e51565b60405180910390f35b6102f460048036038101906102ef9190612040565b610855565b005b610310600480360381019061030b91906121b5565b61086b565b005b61032c60048036038101906103279190611e9f565b6108cd565b6040516103399190611e51565b60405180910390f35b61035c600480360381019061035791906122d9565b6108df565b005b61037860048036038101906103739190612335565b610910565b6040516103859190611da6565b60405180910390f35b6103a860048036038101906103a39190611fe7565b6109a4565b005b60006103b66008610a27565b905090565b60006103c682610a35565b9050919050565b6060600080546103dc906123a4565b80601f0160208091040260200160405190810160405280929190818152602001828054610408906123a4565b80156104555780601f1061042a57610100808354040283529160200191610455565b820191906000526020600020905b81548152906001019060200180831161043857829003601f168201915b5050505050905090565b600061046a82610a96565b6004600083815260200190815260200160002060009054906101000a900473ffffffffffffffffffffffffffffffffffffffff169050919050565b60006104b08261063c565b90508073ffffffffffffffffffffffffffffffffffffffff168373ffffffffffffffffffffffffffffffffffffffff1603610520576040517f08c379a000000000000000000000000000000000000000000000000000000000815260040161051790612447565b60405180910390fd5b8073ffffffffffffffffffffffffffffffffffffffff1661053f610ae1565b73ffffffffffffffffffffffffffffffffffffffff16148061056e575061056d81610568610ae1565b610910565b5b6105ad576040517f08c379a00000000000000000000000000000000000000000000000000000000081526004016105a4906124d9565b60405180910390fd5b6105b78383610ae9565b505050565b6105cd6105c7610ae1565b82610ba2565b61060c576040517f08c379a00000000000000000000000000000000000000000000000000000000081526004016106039061256b565b60405180910390fd5b610617838383610c37565b505050565b6106378383836040518060200160405280600081525061086b565b505050565b60008061064883610f30565b9050600073ffffffffffffffffffffffffffffffffffffffff168173ffffffffffffffffffffffffffffffffffffffff16036106b9576040517f08c379a00000000000000000000000000000000000000000000000000000000081526004016106b0906125d7565b60405180910390fd5b80915050919050565b60008073ffffffffffffffffffffffffffffffffffffffff168273ffffffffffffffffffffffffffffffffffffffff1603610732576040517f08c379a000000000000000000000000000000000000000000000000000000000815260040161072990612669565b60405180910390fd5b600360008373ffffffffffffffffffffffffffffffffffffffff1673ffffffffffffffffffffffffffffffffffffffff168152602001908152602001600020549050919050565b610781610f6d565b61078b6000610feb565b565b60088060000154905081565b6000600760009054906101000a900473ffffffffffffffffffffffffffffffffffffffff16905090565b6060600180546107d2906123a4565b80601f01602080910402602001604051908101604052809291908181526020018280546107fe906123a4565b801561084b5780601f106108205761010080835404028352916020019161084b565b820191906000526020600020905b81548152906001019060200180831161082e57829003601f168201915b5050505050905090565b610867610860610ae1565b83836110b1565b5050565b61087c610876610ae1565b83610ba2565b6108bb576040517f08c379a00000000000000000000000000000000000000000000000000000000081526004016108b29061256b565b60405180910390fd5b6108c78484848461121d565b50505050565b60606108d882611279565b9050919050565b60006108eb6008610a27565b90506108f7600861138b565b61090183826113a1565b61090b81836113bf565b505050565b6000600560008473ffffffffffffffffffffffffffffffffffffffff1673ffffffffffffffffffffffffffffffffffffffff16815260200190815260200160002060008373ffffffffffffffffffffffffffffffffffffffff1673ffffffffffffffffffffffffffffffffffffffff16815260200190815260200160002060009054906101000a900460ff16905092915050565b6109ac610f6d565b600073ffffffffffffffffffffffffffffffffffffffff168173ffffffffffffffffffffffffffffffffffffffff1603610a1b576040517f08c379a0000000000000000000000000000000000000000000000000000000008152600401610a12906126fb565b60405180910390fd5b610a2481610feb565b50565b600081600001549050919050565b6000634906490660e01b7bffffffffffffffffffffffffffffffffffffffffffffffffffffffff1916827bffffffffffffffffffffffffffffffffffffffffffffffffffffffff19161480610a8f5750610a8e82611463565b5b9050919050565b610a9f81611545565b610ade576040517f08c379a0000000000000000000000000000000000000000000000000000000008152600401610ad5906125d7565b60405180910390fd5b50565b600033905090565b816004600083815260200190815260200160002060006101000a81548173ffffffffffffffffffffffffffffffffffffffff021916908373ffffffffffffffffffffffffffffffffffffffff160217905550808273ffffffffffffffffffffffffffffffffffffffff16610b5c8361063c565b73ffffffffffffffffffffffffffffffffffffffff167f8c5be1e5ebec7d5bd14f71427d1e84f3dd0314c0f7b2291e5b200ac8c7c3b92560405160405180910390a45050565b600080610bae8361063c565b90508073ffffffffffffffffffffffffffffffffffffffff168473ffffffffffffffffffffffffffffffffffffffff161480610bf05750610bef8185610910565b5b80610c2e57508373ffffffffffffffffffffffffffffffffffffffff16610c168461045f565b73ffffffffffffffffffffffffffffffffffffffff16145b91505092915050565b8273ffffffffffffffffffffffffffffffffffffffff16610c578261063c565b73ffffffffffffffffffffffffffffffffffffffff1614610cad576040517f08c379a0000000000000000000000000000000000000000000000000000000008152600401610ca49061278d565b60405180910390fd5b600073ffffffffffffffffffffffffffffffffffffffff168273ffffffffffffffffffffffffffffffffffffffff1603610d1c576040517f08c379a0000000000000000000000000000000000000000000000000000000008152600401610d139061281f565b60405180910390fd5b610d298383836001611586565b8273ffffffffffffffffffffffffffffffffffffffff16610d498261063c565b73ffffffffffffffffffffffffffffffffffffffff1614610d9f576040517f08c379a0000000000000000000000000000000000000000000000000000000008152600401610d969061278d565b60405180910390fd5b6004600082815260200190815260200160002060006101000a81549073ffffffffffffffffffffffffffffffffffffffff02191690556001600360008573ffffffffffffffffffffffffffffffffffffffff1673ffffffffffffffffffffffffffffffffffffffff168152602001908152602001600020600082825403925050819055506001600360008473ffffffffffffffffffffffffffffffffffffffff1673ffffffffffffffffffffffffffffffffffffffff16815260200190815260200160002060008282540192505081905550816002600083815260200190815260200160002060006101000a81548173ffffffffffffffffffffffffffffffffffffffff021916908373ffffffffffffffffffffffffffffffffffffffff160217905550808273ffffffffffffffffffffffffffffffffffffffff168473ffffffffffffffffffffffffffffffffffffffff167fddf252ad1be2c89b69c2b068fc378daa952ba7f163c4a11628f55a4df523b3ef60405160405180910390a4610f2b838383600161158c565b505050565b60006002600083815260200190815260200160002060009054906101000a900473ffffffffffffffffffffffffffffffffffffffff169050919050565b610f75610ae1565b73ffffffffffffffffffffffffffffffffffffffff16610f93610799565b73ffffffffffffffffffffffffffffffffffffffff1614610fe9576040517f08c379a0000000000000000000000000000000000000000000000000000000008152600401610fe09061288b565b60405180910390fd5b565b6000600760009054906101000a900473ffffffffffffffffffffffffffffffffffffffff16905081600760006101000a81548173ffffffffffffffffffffffffffffffffffffffff021916908373ffffffffffffffffffffffffffffffffffffffff1602179055508173ffffffffffffffffffffffffffffffffffffffff168173ffffffffffffffffffffffffffffffffffffffff167f8be0079c531659141344cd1fd0a4f28419497f9722a3daafe3b4186f6b6457e060405160405180910390a35050565b8173ffffffffffffffffffffffffffffffffffffffff168373ffffffffffffffffffffffffffffffffffffffff160361111f576040517f08c379a0000000000000000000000000000000000000000000000000000000008152600401611116906128f7565b60405180910390fd5b80600560008573ffffffffffffffffffffffffffffffffffffffff1673ffffffffffffffffffffffffffffffffffffffff16815260200190815260200160002060008473ffffffffffffffffffffffffffffffffffffffff1673ffffffffffffffffffffffffffffffffffffffff16815260200190815260200160002060006101000a81548160ff0219169083151502179055508173ffffffffffffffffffffffffffffffffffffffff168373ffffffffffffffffffffffffffffffffffffffff167f17307eab39ab6107e8899845ad3d59bd9653f200f220920489ca2b5937696c31836040516112109190611da6565b60405180910390a3505050565b611228848484610c37565b61123484848484611592565b611273576040517f08c379a000000000000000000000000000000000000000000000000000000000815260040161126a90612989565b60405180910390fd5b50505050565b606061128482610a96565b60006006600084815260200190815260200160002080546112a4906123a4565b80601f01602080910402602001604051908101604052809291908181526020018280546112d0906123a4565b801561131d5780601f106112f25761010080835404028352916020019161131d565b820191906000526020600020905b81548152906001019060200180831161130057829003601f168201915b50505050509050600061132e611719565b90506000815103611343578192505050611386565b6000825111156113785780826040516020016113609291906129e5565b60405160208183030381529060405292505050611386565b61138184611730565b925050505b919050565b6001816000016000828254019250508190555050565b6113bb828260405180602001604052806000815250611798565b5050565b6113c882611545565b611407576040517f08c379a00000000000000000000000000000000000000000000000000000000081526004016113fe90612a7b565b60405180910390fd5b806006600084815260200190815260200160002090816114279190612c47565b507ff8e1a15aba9398e019f0b49df1a4fde98ee17ae345cb5f6b5e2c27f5033e8ce7826040516114579190611cd7565b60405180910390a15050565b60007f80ac58cd000000000000000000000000000000000000000000000000000000007bffffffffffffffffffffffffffffffffffffffffffffffffffffffff1916827bffffffffffffffffffffffffffffffffffffffffffffffffffffffff1916148061152e57507f5b5e139f000000000000000000000000000000000000000000000000000000007bffffffffffffffffffffffffffffffffffffffffffffffffffffffff1916827bffffffffffffffffffffffffffffffffffffffffffffffffffffffff1916145b8061153e575061153d826117f3565b5b9050919050565b60008073ffffffffffffffffffffffffffffffffffffffff1661156783610f30565b73ffffffffffffffffffffffffffffffffffffffff1614159050919050565b50505050565b50505050565b60006115b38473ffffffffffffffffffffffffffffffffffffffff1661185d565b1561170c578373ffffffffffffffffffffffffffffffffffffffff1663150b7a026115dc610ae1565b8786866040518563ffffffff1660e01b81526004016115fe9493929190612d6e565b6020604051808303816000875af192505050801561163a57506040513d601f19601f820116820180604052508101906116379190612dcf565b60015b6116bc573d806000811461166a576040519150601f19603f3d011682016040523d82523d6000602084013e61166f565b606091505b5060008151036116b4576040517f08c379a00000000000000000000000000000000000000000000000000000000081526004016116ab90612989565b60405180910390fd5b805181602001fd5b63150b7a0260e01b7bffffffffffffffffffffffffffffffffffffffffffffffffffffffff1916817bffffffffffffffffffffffffffffffffffffffffffffffffffffffff191614915050611711565b600190505b949350505050565b606060405180602001604052806000815250905090565b606061173b82610a96565b6000611745611719565b905060008151116117655760405180602001604052806000815250611790565b8061176f84611880565b6040516020016117809291906129e5565b6040516020818303038152906040525b915050919050565b6117a2838361194e565b6117af6000848484611592565b6117ee576040517f08c379a00000000000000000000000000000000000000000000000000000000081526004016117e590612989565b60405180910390fd5b505050565b60007f01ffc9a7000000000000000000000000000000000000000000000000000000007bffffffffffffffffffffffffffffffffffffffffffffffffffffffff1916827bffffffffffffffffffffffffffffffffffffffffffffffffffffffff1916149050919050565b6000808273ffffffffffffffffffffffffffffffffffffffff163b119050919050565b60606000600161188f84611b6b565b01905060008167ffffffffffffffff8111156118ae576118ad61208a565b5b6040519080825280601f01601f1916602001820160405280156118e05781602001600182028036833780820191505090505b509050600082602001820190505b600115611943578080600190039150507f3031323334353637383961626364656600000000000000000000000000000000600a86061a8153600a858161193757611936612dfc565b5b049450600085036118ee575b819350505050919050565b600073ffffffffffffffffffffffffffffffffffffffff168273ffffffffffffffffffffffffffffffffffffffff16036119bd576040517f08c379a00000000000000000000000000000000000000000000000000000000081526004016119b490612e77565b60405180910390fd5b6119c681611545565b15611a06576040517f08c379a00000000000000000000000000000000000000000000000000000000081526004016119fd90612ee3565b60405180910390fd5b611a14600083836001611586565b611a1d81611545565b15611a5d576040517f08c379a0000000000000000000000000000000000000000000000000000000008152600401611a5490612ee3565b60405180910390fd5b6001600360008473ffffffffffffffffffffffffffffffffffffffff1673ffffffffffffffffffffffffffffffffffffffff16815260200190815260200160002060008282540192505081905550816002600083815260200190815260200160002060006101000a81548173ffffffffffffffffffffffffffffffffffffffff021916908373ffffffffffffffffffffffffffffffffffffffff160217905550808273ffffffffffffffffffffffffffffffffffffffff16600073ffffffffffffffffffffffffffffffffffffffff167fddf252ad1be2c89b69c2b068fc378daa952ba7f163c4a11628f55a4df523b3ef60405160405180910390a4611b6760008383600161158c565b5050565b600080600090507a184f03e93ff9f4daa797ed6e38ed64bf6a1f0100000000000000008310611bc9577a184f03e93ff9f4daa797ed6e38ed64bf6a1f0100000000000000008381611bbf57611bbe612dfc565b5b0492506040810190505b6d04ee2d6d415b85acef81000000008310611c06576d04ee2d6d415b85acef81000000008381611bfc57611bfb612dfc565b5b0492506020810190505b662386f26fc100008310611c3557662386f26fc100008381611c2b57611c2a612dfc565b5b0492506010810190505b6305f5e1008310611c5e576305f5e1008381611c5457611c53612dfc565b5b0492506008810190505b6127108310611c83576127108381611c7957611c78612dfc565b5b0492506004810190505b60648310611ca65760648381611c9c57611c9b612dfc565b5b0492506002810190505b600a8310611cb5576001810190505b80915050919050565b6000819050919050565b611cd181611cbe565b82525050565b6000602082019050611cec6000830184611cc8565b92915050565b6000604051905090565b600080fd5b600080fd5b60007fffffffff0000000000000000000000000000000000000000000000000000000082169050919050565b611d3b81611d06565b8114611d4657600080fd5b50565b600081359050611d5881611d32565b92915050565b600060208284031215611d7457611d73611cfc565b5b6000611d8284828501611d49565b91505092915050565b60008115159050919050565b611da081611d8b565b82525050565b6000602082019050611dbb6000830184611d97565b92915050565b600081519050919050565b600082825260208201905092915050565b60005b83811015611dfb578082015181840152602081019050611de0565b60008484015250505050565b6000601f19601f8301169050919050565b6000611e2382611dc1565b611e2d8185611dcc565b9350611e3d818560208601611ddd565b611e4681611e07565b840191505092915050565b60006020820190508181036000830152611e6b8184611e18565b905092915050565b611e7c81611cbe565b8114611e8757600080fd5b50565b600081359050611e9981611e73565b92915050565b600060208284031215611eb557611eb4611cfc565b5b6000611ec384828501611e8a565b91505092915050565b600073ffffffffffffffffffffffffffffffffffffffff82169050919050565b6000611ef782611ecc565b9050919050565b611f0781611eec565b82525050565b6000602082019050611f226000830184611efe565b92915050565b611f3181611eec565b8114611f3c57600080fd5b50565b600081359050611f4e81611f28565b92915050565b60008060408385031215611f6b57611f6a611cfc565b5b6000611f7985828601611f3f565b9250506020611f8a85828601611e8a565b9150509250929050565b600080600060608486031215611fad57611fac611cfc565b5b6000611fbb86828701611f3f565b9350506020611fcc86828701611f3f565b9250506040611fdd86828701611e8a565b9150509250925092565b600060208284031215611ffd57611ffc611cfc565b5b600061200b84828501611f3f565b91505092915050565b61201d81611d8b565b811461202857600080fd5b50565b60008135905061203a81612014565b92915050565b6000806040838503121561205757612056611cfc565b5b600061206585828601611f3f565b92505060206120768582860161202b565b9150509250929050565b600080fd5b600080fd5b7f4e487b7100000000000000000000000000000000000000000000000000000000600052604160045260246000fd5b6120c282611e07565b810181811067ffffffffffffffff821117156120e1576120e061208a565b5b80604052505050565b60006120f4611cf2565b905061210082826120b9565b919050565b600067ffffffffffffffff8211156121205761211f61208a565b5b61212982611e07565b9050602081019050919050565b82818337600083830152505050565b600061215861215384612105565b6120ea565b90508281526020810184848401111561217457612173612085565b5b61217f848285612136565b509392505050565b600082601f83011261219c5761219b612080565b5b81356121ac848260208601612145565b91505092915050565b600080600080608085870312156121cf576121ce611cfc565b5b60006121dd87828801611f3f565b94505060206121ee87828801611f3f565b93505060406121ff87828801611e8a565b925050606085013567ffffffffffffffff8111156122205761221f611d01565b5b61222c87828801612187565b91505092959194509250565b600067ffffffffffffffff8211156122535761225261208a565b5b61225c82611e07565b9050602081019050919050565b600061227c61227784612238565b6120ea565b90508281526020810184848401111561229857612297612085565b5b6122a3848285612136565b509392505050565b600082601f8301126122c0576122bf612080565b5b81356122d0848260208601612269565b91505092915050565b600080604083850312156122f0576122ef611cfc565b5b60006122fe85828601611f3f565b925050602083013567ffffffffffffffff81111561231f5761231e611d01565b5b61232b858286016122ab565b9150509250929050565b6000806040838503121561234c5761234b611cfc565b5b600061235a85828601611f3f565b925050602061236b85828601611f3f565b9150509250929050565b7f4e487b7100000000000000000000000000000000000000000000000000000000600052602260045260246000fd5b600060028204905060018216806123bc57607f821691505b6020821081036123cf576123ce612375565b5b50919050565b7f4552433732313a20617070726f76616c20746f2063757272656e74206f776e6560008201527f7200000000000000000000000000000000000000000000000000000000000000602082015250565b6000612431602183611dcc565b915061243c826123d5565b604082019050919050565b6000602082019050818103600083015261246081612424565b9050919050565b7f4552433732313a20617070726f76652063616c6c6572206973206e6f7420746f60008201527f6b656e206f776e6572206f7220617070726f76656420666f7220616c6c000000602082015250565b60006124c3603d83611dcc565b91506124ce82612467565b604082019050919050565b600060208201905081810360008301526124f2816124b6565b9050919050565b7f4552433732313a2063616c6c6572206973206e6f7420746f6b656e206f776e6560008201527f72206f7220617070726f76656400000000000000000000000000000000000000602082015250565b6000612555602d83611dcc565b9150612560826124f9565b604082019050919050565b6000602082019050818103600083015261258481612548565b9050919050565b7f4552433732313a20696e76616c696420746f6b656e2049440000000000000000600082015250565b60006125c1601883611dcc565b91506125cc8261258b565b602082019050919050565b600060208201905081810360008301526125f0816125b4565b9050919050565b7f4552433732313a2061646472657373207a65726f206973206e6f74206120766160008201527f6c6964206f776e65720000000000000000000000000000000000000000000000602082015250565b6000612653602983611dcc565b915061265e826125f7565b604082019050919050565b6000602082019050818103600083015261268281612646565b9050919050565b7f4f776e61626c653a206e6577206f776e657220697320746865207a65726f206160008201527f6464726573730000000000000000000000000000000000000000000000000000602082015250565b60006126e5602683611dcc565b91506126f082612689565b604082019050919050565b60006020820190508181036000830152612714816126d8565b9050919050565b7f4552433732313a207472616e736665722066726f6d20696e636f72726563742060008201527f6f776e6572000000000000000000000000000000000000000000000000000000602082015250565b6000612777602583611dcc565b91506127828261271b565b604082019050919050565b600060208201905081810360008301526127a68161276a565b9050919050565b7f4552433732313a207472616e7366657220746f20746865207a65726f2061646460008201527f7265737300000000000000000000000000000000000000000000000000000000602082015250565b6000612809602483611dcc565b9150612814826127ad565b604082019050919050565b60006020820190508181036000830152612838816127fc565b9050919050565b7f4f776e61626c653a2063616c6c6572206973206e6f7420746865206f776e6572600082015250565b6000612875602083611dcc565b91506128808261283f565b602082019050919050565b600060208201905081810360008301526128a481612868565b9050919050565b7f4552433732313a20617070726f766520746f2063616c6c657200000000000000600082015250565b60006128e1601983611dcc565b91506128ec826128ab565b602082019050919050565b60006020820190508181036000830152612910816128d4565b9050919050565b7f4552433732313a207472616e7366657220746f206e6f6e20455243373231526560008201527f63656976657220696d706c656d656e7465720000000000000000000000000000602082015250565b6000612973603283611dcc565b915061297e82612917565b604082019050919050565b600060208201905081810360008301526129a281612966565b9050919050565b600081905092915050565b60006129bf82611dc1565b6129c981856129a9565b93506129d9818560208601611ddd565b80840191505092915050565b60006129f182856129b4565b91506129fd82846129b4565b91508190509392505050565b7f45524337323155524953746f726167653a2055524920736574206f66206e6f6e60008201527f6578697374656e7420746f6b656e000000000000000000000000000000000000602082015250565b6000612a65602e83611dcc565b9150612a7082612a09565b604082019050919050565b60006020820190508181036000830152612a9481612a58565b9050919050565b60008190508160005260206000209050919050565b60006020601f8301049050919050565b600082821b905092915050565b600060088302612afd7fffffffffffffffffffffffffffffffffffffffffffffffffffffffffffffffff82612ac0565b612b078683612ac0565b95508019841693508086168417925050509392505050565b6000819050919050565b6000612b44612b3f612b3a84611cbe565b612b1f565b611cbe565b9050919050565b6000819050919050565b612b5e83612b29565b612b72612b6a82612b4b565b848454612acd565b825550505050565b600090565b612b87612b7a565b612b92818484612b55565b505050565b5b81811015612bb657612bab600082612b7f565b600181019050612b98565b5050565b601f821115612bfb57612bcc81612a9b565b612bd584612ab0565b81016020851015612be4578190505b612bf8612bf085612ab0565b830182612b97565b50505b505050565b600082821c905092915050565b6000612c1e60001984600802612c00565b1980831691505092915050565b6000612c378383612c0d565b9150826002028217905092915050565b612c5082611dc1565b67ffffffffffffffff811115612c6957612c6861208a565b5b612c7382546123a4565b612c7e828285612bba565b600060209050601f831160018114612cb15760008415612c9f578287015190505b612ca98582612c2b565b865550612d11565b601f198416612cbf86612a9b565b60005b82811015612ce757848901518255600182019150602085019450602081019050612cc2565b86831015612d045784890151612d00601f891682612c0d565b8355505b6001600288020188555050505b505050505050565b600081519050919050565b600082825260208201905092915050565b6000612d4082612d19565b612d4a8185612d24565b9350612d5a818560208601611ddd565b612d6381611e07565b840191505092915050565b6000608082019050612d836000830187611efe565b612d906020830186611efe565b612d9d6040830185611cc8565b8181036060830152612daf8184612d35565b905095945050505050565b600081519050612dc981611d32565b92915050565b600060208284031215612de557612de4611cfc565b5b6000612df384828501612dba565b91505092915050565b7f4e487b7100000000000000000000000000000000000000000000000000000000600052601260045260246000fd5b7f4552433732313a206d696e7420746f20746865207a65726f2061646472657373600082015250565b6000612e61602083611dcc565b9150612e6c82612e2b565b602082019050919050565b60006020820190508181036000830152612e9081612e54565b9050919050565b7f4552433732313a20746f6b656e20616c7265616479206d696e74656400000000600082015250565b6000612ecd601c83611dcc565b9150612ed882612e97565b602082019050919050565b60006020820190508181036000830152612efc81612ec0565b905091905056fea2646970667358221220b0845b05ce5b3dee106056a07ef84de564b66476b424717386feb1e6e032edc164736f6c63430008130033",
  "linkReferences": {},
  "deployedLinkReferences": {}
}