{
  "_format": "hh-sol-artifact-1",
  "contractName": "Marketplace",
  "sourceName": "contracts/marketplace.sol",
  "abi": [
    {
      "anonymous": false,
      "inputs": [
        {
          "indexed": true,
          "internalType": "address",
          "name": "previousOwner",
          "type": "address"
        },
        {
          "indexed": true,
          "internalType": "address",
          "name": "newOwner",
          "type": "address"
        }
      ],
      "name": "OwnershipTransferred",
      "type": "event"
    },
    {
      "anonymous": false,
      "inputs": [
        {
          "indexed": false,
          "internalType": "address",
          "name": "nftContractAddress",
          "type": "address"
        },
        {
          "indexed": false,
          "internalType": "uint256",
          "name": "tokenId",
          "type": "uint256"
        },
        {
          "indexed": false,
          "internalType": "uint256",
          "name": "price",
          "type": "uint256"
        }
      ],
      "name": "listingNft",
      "type": "event"
    },
    {
      "anonymous": false,
      "inputs": [
        {
          "indexed": false,
          "internalType": "uint256",
          "name": "tokenId",
          "type": "uint256"
        },
        {
          "indexed": false,
          "internalType": "address",
          "name": "buyer",
          "type": "address"
        },
        {
          "indexed": false,
          "internalType": "uint256",
          "name": "price",
          "type": "uint256"
        }
      ],
      "name": "purchasedNft",
      "type": "event"
    },
    {
      "inputs": [
        {
          "internalType": "uint256",
          "name": "",
          "type": "uint256"
        },
        {
          "internalType": "address",
          "name": "",
          "type": "address"
        }
      ],
      "name": "idToMarketItem",
      "outputs": [
        {
          "internalType": "uint256",
          "name": "tokenId",
          "type": "uint256"
        },
        {
          "internalType": "address",
          "name": "seller",
          "type": "address"
        },
        {
          "internalType": "address",
          "name": "nftContractAddress",
          "type": "address"
        },
        {
          "internalType": "uint256",
          "name": "price",
          "type": "uint256"
        },
        {
          "internalType": "bool",
          "name": "active",
          "type": "bool"
        }
      ],
      "stateMutability": "view",
      "type": "function"
    },
    {
      "inputs": [],
      "name": "listCounts",
      "outputs": [
        {
          "internalType": "uint256",
          "name": "_value",
          "type": "uint256"
        }
      ],
      "stateMutability": "view",
      "type": "function"
    },
    {
      "inputs": [
        {
          "internalType": "address",
          "name": "_nftContractAddress",
          "type": "address"
        },
        {
          "internalType": "uint256",
          "name": "_tokenId",
          "type": "uint256"
        },
        {
          "internalType": "uint256",
          "name": "_price",
          "type": "uint256"
        }
      ],
      "name": "listNft",
      "outputs": [],
      "stateMutability": "payable",
      "type": "function"
    },
    {
      "inputs": [],
      "name": "listingPrice",
      "outputs": [
        {
          "internalType": "uint256",
          "name": "",
          "type": "uint256"
        }
      ],
      "stateMutability": "view",
      "type": "function"
    },
    {
      "inputs": [],
      "name": "owner",
      "outputs": [
        {
          "internalType": "address",
          "name": "",
          "type": "address"
        }
      ],
      "stateMutability": "view",
      "type": "function"
    },
    {
      "inputs": [
        {
          "internalType": "uint256",
          "name": "",
          "type": "uint256"
        },
        {
          "internalType": "address",
          "name": "",
          "type": "address"
        }
      ],
      "name": "ownerOfItem",
      "outputs": [
        {
          "internalType": "address",
          "name": "",
          "type": "address"
        }
      ],
      "stateMutability": "view",
      "type": "function"
    },
    {
      "inputs": [
        {
          "internalType": "uint256",
          "name": "tokenId",
          "type": "uint256"
        },
        {
          "internalType": "address",
          "name": "_nftContractAddress",
          "type": "address"
        }
      ],
      "name": "purchaseNft",
      "outputs": [],
      "stateMutability": "payable",
      "type": "function"
    },
    {
      "inputs": [],
      "name": "renounceOwnership",
      "outputs": [],
      "stateMutability": "nonpayable",
      "type": "function"
    },
    {
      "inputs": [
        {
          "internalType": "address",
          "name": "newOwner",
          "type": "address"
        }
      ],
      "name": "transferOwnership",
      "outputs": [],
      "stateMutability": "nonpayable",
      "type": "function"
    },
    {
      "inputs": [],
      "name": "withdrawAmount",
      "outputs": [],
      "stateMutability": "nonpayable",
      "type": "function"
    }
  ],
  "bytecode": "0x60806040526608e1bc9bf0400060035534801561001b57600080fd5b5061003861002d61004460201b60201c565b61004c60201b60201c565b60018081905550610110565b600033905090565b60008060009054906101000a900473ffffffffffffffffffffffffffffffffffffffff169050816000806101000a81548173ffffffffffffffffffffffffffffffffffffffff021916908373ffffffffffffffffffffffffffffffffffffffff1602179055508173ffffffffffffffffffffffffffffffffffffffff168173ffffffffffffffffffffffffffffffffffffffff167f8be0079c531659141344cd1fd0a4f28419497f9722a3daafe3b4186f6b6457e060405160405180910390a35050565b6118b98061011f6000396000f3fe6080604052600436106100915760003560e01c8063c78f19f911610059578063c78f19f914610157578063c922b17c14610182578063e0d925ff1461019e578063e79571bd146101ba578063f2fde38b146101fb57610091565b806303d5f38d1461009657806317661fb4146100c1578063534844a2146100fe578063715018a6146101155780638da5cb5b1461012c575b600080fd5b3480156100a257600080fd5b506100ab610224565b6040516100b891906110ee565b60405180910390f35b3480156100cd57600080fd5b506100e860048036038101906100e39190611198565b610230565b6040516100f591906111e7565b60405180910390f35b34801561010a57600080fd5b50610113610272565b005b34801561012157600080fd5b5061012a610339565b005b34801561013857600080fd5b5061014161034d565b60405161014e91906111e7565b60405180910390f35b34801561016357600080fd5b5061016c610376565b60405161017991906110ee565b60405180910390f35b61019c60048036038101906101979190611202565b61037c565b005b6101b860048036038101906101b39190611198565b610836565b005b3480156101c657600080fd5b506101e160048036038101906101dc9190611198565b610dae565b6040516101f2959493929190611270565b60405180910390f35b34801561020757600080fd5b50610222600480360381019061021d91906112c3565b610e3e565b005b60028060000154905081565b60056020528160005260406000206020528060005260406000206000915091509054906101000a900473ffffffffffffffffffffffffffffffffffffffff1681565b61027a610ec1565b610282610f3f565b60003373ffffffffffffffffffffffffffffffffffffffff16476040516102a890611321565b60006040518083038185875af1925050503d80600081146102e5576040519150601f19603f3d011682016040523d82523d6000602084013e6102ea565b606091505b505090508061032e576040517f08c379a000000000000000000000000000000000000000000000000000000000815260040161032590611393565b60405180910390fd5b50610337610f8e565b565b610341610ec1565b61034b6000610f97565b565b60008060009054906101000a900473ffffffffffffffffffffffffffffffffffffffff16905090565b60035481565b610384610f3f565b6003543410156103c9576040517f08c379a00000000000000000000000000000000000000000000000000000000081526004016103c0906113ff565b60405180910390fd5b3373ffffffffffffffffffffffffffffffffffffffff168373ffffffffffffffffffffffffffffffffffffffff16636352211e846040518263ffffffff1660e01b815260040161041991906110ee565b602060405180830381865afa158015610436573d6000803e3d6000fd5b505050506040513d601f19601f8201168201806040525081019061045a9190611434565b73ffffffffffffffffffffffffffffffffffffffff16146104b0576040517f08c379a00000000000000000000000000000000000000000000000000000000081526004016104a7906114ad565b60405180910390fd5b8273ffffffffffffffffffffffffffffffffffffffff166323b872dd3330856040518463ffffffff1660e01b81526004016104ed939291906114cd565b600060405180830381600087803b15801561050757600080fd5b505af115801561051b573d6000803e3d6000fd5b50505050610529600261105b565b6040518060a001604052808381526020013373ffffffffffffffffffffffffffffffffffffffff1681526020018473ffffffffffffffffffffffffffffffffffffffff168152602001828152602001600115158152506004600084815260200190815260200160002060008573ffffffffffffffffffffffffffffffffffffffff1673ffffffffffffffffffffffffffffffffffffffff1681526020019081526020016000206000820151816000015560208201518160010160006101000a81548173ffffffffffffffffffffffffffffffffffffffff021916908373ffffffffffffffffffffffffffffffffffffffff16021790555060408201518160020160006101000a81548173ffffffffffffffffffffffffffffffffffffffff021916908373ffffffffffffffffffffffffffffffffffffffff1602179055506060820151816003015560808201518160040160006101000a81548160ff021916908315150217905550905050336005600084815260200190815260200160002060008573ffffffffffffffffffffffffffffffffffffffff1673ffffffffffffffffffffffffffffffffffffffff16815260200190815260200160002060006101000a81548173ffffffffffffffffffffffffffffffffffffffff021916908373ffffffffffffffffffffffffffffffffffffffff1602179055506003543411156107ee5760006003543461073d9190611533565b905060003373ffffffffffffffffffffffffffffffffffffffff168260405161076590611321565b60006040518083038185875af1925050503d80600081146107a2576040519150601f19603f3d011682016040523d82523d6000602084013e6107a7565b606091505b50509050806107eb576040517f08c379a00000000000000000000000000000000000000000000000000000000081526004016107e290611393565b60405180910390fd5b50505b7f60aa539ace9bd799f6323a75a4594104c7d782bc4befcf9599a182a1369c10e983838360405161082193929190611567565b60405180910390a1610831610f8e565b505050565b61083e610f3f565b600115156004600084815260200190815260200160002060008373ffffffffffffffffffffffffffffffffffffffff1673ffffffffffffffffffffffffffffffffffffffff16815260200190815260200160002060040160009054906101000a900460ff161515146108e5576040517f08c379a00000000000000000000000000000000000000000000000000000000081526004016108dc906115ea565b60405180910390fd5b6004600083815260200190815260200160002060008273ffffffffffffffffffffffffffffffffffffffff1673ffffffffffffffffffffffffffffffffffffffff1681526020019081526020016000206003015434101561097b576040517f08c379a000000000000000000000000000000000000000000000000000000000815260040161097290611656565b60405180910390fd5b60006004600084815260200190815260200160002060008373ffffffffffffffffffffffffffffffffffffffff1673ffffffffffffffffffffffffffffffffffffffff16815260200190815260200160002060010160009054906101000a900473ffffffffffffffffffffffffffffffffffffffff1673ffffffffffffffffffffffffffffffffffffffff1634604051610a1490611321565b60006040518083038185875af1925050503d8060008114610a51576040519150601f19603f3d011682016040523d82523d6000602084013e610a56565b606091505b5050905080610a9a576040517f08c379a0000000000000000000000000000000000000000000000000000000008152600401610a9190611393565b60405180910390fd5b6004600084815260200190815260200160002060008373ffffffffffffffffffffffffffffffffffffffff1673ffffffffffffffffffffffffffffffffffffffff16815260200190815260200160002060020160009054906101000a900473ffffffffffffffffffffffffffffffffffffffff1673ffffffffffffffffffffffffffffffffffffffff166323b872dd3033866040518463ffffffff1660e01b8152600401610b4a939291906114cd565b600060405180830381600087803b158015610b6457600080fd5b505af1158015610b78573d6000803e3d6000fd5b50505050610b866002611071565b60006004600085815260200190815260200160002060008473ffffffffffffffffffffffffffffffffffffffff1673ffffffffffffffffffffffffffffffffffffffff16815260200190815260200160002060040160006101000a81548160ff021916908315150217905550336004600085815260200190815260200160002060008473ffffffffffffffffffffffffffffffffffffffff1673ffffffffffffffffffffffffffffffffffffffff16815260200190815260200160002060010160006101000a81548173ffffffffffffffffffffffffffffffffffffffff021916908373ffffffffffffffffffffffffffffffffffffffff160217905550336005600085815260200190815260200160002060008473ffffffffffffffffffffffffffffffffffffffff1673ffffffffffffffffffffffffffffffffffffffff16815260200190815260200160002060006101000a81548173ffffffffffffffffffffffffffffffffffffffff021916908373ffffffffffffffffffffffffffffffffffffffff1602179055507f289cca249eabc768efba5984f544a5be6a8dd341bdffc132f699cebcf0a407fa83336004600087815260200190815260200160002060008673ffffffffffffffffffffffffffffffffffffffff1673ffffffffffffffffffffffffffffffffffffffff16815260200190815260200160002060030154604051610d9993929190611676565b60405180910390a150610daa610f8e565b5050565b6004602052816000526040600020602052806000526040600020600091509150508060000154908060010160009054906101000a900473ffffffffffffffffffffffffffffffffffffffff16908060020160009054906101000a900473ffffffffffffffffffffffffffffffffffffffff16908060030154908060040160009054906101000a900460ff16905085565b610e46610ec1565b600073ffffffffffffffffffffffffffffffffffffffff168173ffffffffffffffffffffffffffffffffffffffff1603610eb5576040517f08c379a0000000000000000000000000000000000000000000000000000000008152600401610eac9061171f565b60405180910390fd5b610ebe81610f97565b50565b610ec96110cd565b73ffffffffffffffffffffffffffffffffffffffff16610ee761034d565b73ffffffffffffffffffffffffffffffffffffffff1614610f3d576040517f08c379a0000000000000000000000000000000000000000000000000000000008152600401610f349061178b565b60405180910390fd5b565b600260015403610f84576040517f08c379a0000000000000000000000000000000000000000000000000000000008152600401610f7b906117f7565b60405180910390fd5b6002600181905550565b60018081905550565b60008060009054906101000a900473ffffffffffffffffffffffffffffffffffffffff169050816000806101000a81548173ffffffffffffffffffffffffffffffffffffffff021916908373ffffffffffffffffffffffffffffffffffffffff1602179055508173ffffffffffffffffffffffffffffffffffffffff168173ffffffffffffffffffffffffffffffffffffffff167f8be0079c531659141344cd1fd0a4f28419497f9722a3daafe3b4186f6b6457e060405160405180910390a35050565b6001816000016000828254019250508190555050565b600081600001549050600081116110bd576040517f08c379a00000000000000000000000000000000000000000000000000000000081526004016110b490611863565b60405180910390fd5b6001810382600001819055505050565b600033905090565b6000819050919050565b6110e8816110d5565b82525050565b600060208201905061110360008301846110df565b92915050565b600080fd5b611117816110d5565b811461112257600080fd5b50565b6000813590506111348161110e565b92915050565b600073ffffffffffffffffffffffffffffffffffffffff82169050919050565b60006111658261113a565b9050919050565b6111758161115a565b811461118057600080fd5b50565b6000813590506111928161116c565b92915050565b600080604083850312156111af576111ae611109565b5b60006111bd85828601611125565b92505060206111ce85828601611183565b9150509250929050565b6111e18161115a565b82525050565b60006020820190506111fc60008301846111d8565b92915050565b60008060006060848603121561121b5761121a611109565b5b600061122986828701611183565b935050602061123a86828701611125565b925050604061124b86828701611125565b9150509250925092565b60008115159050919050565b61126a81611255565b82525050565b600060a08201905061128560008301886110df565b61129260208301876111d8565b61129f60408301866111d8565b6112ac60608301856110df565b6112b96080830184611261565b9695505050505050565b6000602082840312156112d9576112d8611109565b5b60006112e784828501611183565b91505092915050565b600081905092915050565b50565b600061130b6000836112f0565b9150611316826112fb565b600082019050919050565b600061132c826112fe565b9150819050919050565b600082825260208201905092915050565b7f4574686572732043616e27742073656e74000000000000000000000000000000600082015250565b600061137d601183611336565b915061138882611347565b602082019050919050565b600060208201905081810360008301526113ac81611370565b9050919050565b7f496e73756666696369656e742042616c616e6365000000000000000000000000600082015250565b60006113e9601483611336565b91506113f4826113b3565b602082019050919050565b60006020820190508181036000830152611418816113dc565b9050919050565b60008151905061142e8161116c565b92915050565b60006020828403121561144a57611449611109565b5b60006114588482850161141f565b91505092915050565b7f596f7520646f6e2774206f776e207468697320746f6b656e0000000000000000600082015250565b6000611497601883611336565b91506114a282611461565b602082019050919050565b600060208201905081810360008301526114c68161148a565b9050919050565b60006060820190506114e260008301866111d8565b6114ef60208301856111d8565b6114fc60408301846110df565b949350505050565b7f4e487b7100000000000000000000000000000000000000000000000000000000600052601160045260246000fd5b600061153e826110d5565b9150611549836110d5565b925082820390508181111561156157611560611504565b5b92915050565b600060608201905061157c60008301866111d8565b61158960208301856110df565b61159660408301846110df565b949350505050565b7f4c697374696e67206973206e6f74206163746976650000000000000000000000600082015250565b60006115d4601583611336565b91506115df8261159e565b602082019050919050565b60006020820190508181036000830152611603816115c7565b9050919050565b7f496e73756666696369656e742066756e64730000000000000000000000000000600082015250565b6000611640601283611336565b915061164b8261160a565b602082019050919050565b6000602082019050818103600083015261166f81611633565b9050919050565b600060608201905061168b60008301866110df565b61169860208301856111d8565b6116a560408301846110df565b949350505050565b7f4f776e61626c653a206e6577206f776e657220697320746865207a65726f206160008201527f6464726573730000000000000000000000000000000000000000000000000000602082015250565b6000611709602683611336565b9150611714826116ad565b604082019050919050565b60006020820190508181036000830152611738816116fc565b9050919050565b7f4f776e61626c653a2063616c6c6572206973206e6f7420746865206f776e6572600082015250565b6000611775602083611336565b91506117808261173f565b602082019050919050565b600060208201905081810360008301526117a481611768565b9050919050565b7f5265656e7472616e637947756172643a207265656e7472616e742063616c6c00600082015250565b60006117e1601f83611336565b91506117ec826117ab565b602082019050919050565b60006020820190508181036000830152611810816117d4565b9050919050565b7f436f756e7465723a2064656372656d656e74206f766572666c6f770000000000600082015250565b600061184d601b83611336565b915061185882611817565b602082019050919050565b6000602082019050818103600083015261187c81611840565b905091905056fea26469706673582212208dc82a867ee17c0e4bfcee705e2b85f6b041f1c9d53c634ff1f2a06ce0dc0a7b64736f6c63430008130033",
  "linkReferences": {},
  "deployedLinkReferences": {}
}